{
  "contractName": "DocumentsHashStorage",
  "abi": [
    {
      "inputs": [],
      "stateMutability": "nonpayable",
      "type": "constructor"
    },
    {
      "anonymous": false,
      "inputs": [
        {
          "indexed": true,
          "internalType": "address",
          "name": "previousOwner",
          "type": "address"
        },
        {
          "indexed": true,
          "internalType": "address",
          "name": "newOwner",
          "type": "address"
        }
      ],
      "name": "OwnershipTransferred",
      "type": "event"
    },
    {
      "inputs": [
        {
          "internalType": "uint160",
          "name": "",
          "type": "uint160"
        }
      ],
      "name": "documents",
      "outputs": [
        {
          "internalType": "string",
          "name": "cid",
          "type": "string"
        },
        {
          "internalType": "string",
          "name": "path",
          "type": "string"
        },
        {
          "internalType": "address",
          "name": "owner",
          "type": "address"
        }
      ],
      "stateMutability": "view",
      "type": "function",
      "constant": true
    },
    {
      "inputs": [],
      "name": "owner",
      "outputs": [
        {
          "internalType": "address",
          "name": "",
          "type": "address"
        }
      ],
      "stateMutability": "view",
      "type": "function",
      "constant": true
    },
    {
      "inputs": [
        {
          "internalType": "address",
          "name": "",
          "type": "address"
        },
        {
          "internalType": "uint256",
          "name": "",
          "type": "uint256"
        }
      ],
      "name": "ownerToUuids",
      "outputs": [
        {
          "internalType": "uint160",
          "name": "",
          "type": "uint160"
        }
      ],
      "stateMutability": "view",
      "type": "function",
      "constant": true
    },
    {
      "inputs": [
        {
          "internalType": "address",
          "name": "",
          "type": "address"
        }
      ],
      "name": "ownerToUuidsSize",
      "outputs": [
        {
          "internalType": "uint256",
          "name": "",
          "type": "uint256"
        }
      ],
      "stateMutability": "view",
      "type": "function",
      "constant": true
    },
    {
      "inputs": [
        {
          "internalType": "address",
          "name": "",
          "type": "address"
        }
      ],
      "name": "permissions",
      "outputs": [
        {
          "internalType": "bool",
          "name": "",
          "type": "bool"
        }
      ],
      "stateMutability": "view",
      "type": "function",
      "constant": true
    },
    {
      "inputs": [],
      "name": "renounceOwnership",
      "outputs": [],
      "stateMutability": "nonpayable",
      "type": "function"
    },
    {
      "inputs": [
        {
          "internalType": "address",
          "name": "newOwner",
          "type": "address"
        }
      ],
      "name": "transferOwnership",
      "outputs": [],
      "stateMutability": "nonpayable",
      "type": "function"
    },
    {
      "inputs": [
        {
          "internalType": "address",
          "name": "newOwner",
          "type": "address"
        }
      ],
      "name": "addOwner",
      "outputs": [],
      "stateMutability": "nonpayable",
      "type": "function"
    },
    {
      "inputs": [],
      "name": "getOwnerUuidSize",
      "outputs": [
        {
          "internalType": "uint256",
          "name": "",
          "type": "uint256"
        }
      ],
      "stateMutability": "view",
      "type": "function",
      "constant": true
    },
    {
      "inputs": [
        {
          "internalType": "uint256",
          "name": "i",
          "type": "uint256"
        }
      ],
      "name": "getOwnerUuid",
      "outputs": [
        {
          "internalType": "uint160",
          "name": "",
          "type": "uint160"
        }
      ],
      "stateMutability": "view",
      "type": "function",
      "constant": true
    },
    {
      "inputs": [
        {
          "internalType": "uint160",
          "name": "uuid",
          "type": "uint160"
        },
        {
          "internalType": "string",
          "name": "cid",
          "type": "string"
        },
        {
          "internalType": "string",
          "name": "path",
          "type": "string"
        }
      ],
      "name": "addDocument",
      "outputs": [],
      "stateMutability": "nonpayable",
      "type": "function"
    }
  ],
  "bytecode": "0x608060405234801561001057600080fd5b5061002d61002261008a60201b60201c565b61009260201b60201c565b6001600460003373ffffffffffffffffffffffffffffffffffffffff1673ffffffffffffffffffffffffffffffffffffffff16815260200190815260200160002060006101000a81548160ff021916908315150217905550610156565b600033905090565b60008060009054906101000a900473ffffffffffffffffffffffffffffffffffffffff169050816000806101000a81548173ffffffffffffffffffffffffffffffffffffffff021916908373ffffffffffffffffffffffffffffffffffffffff1602179055508173ffffffffffffffffffffffffffffffffffffffff168173ffffffffffffffffffffffffffffffffffffffff167f8be0079c531659141344cd1fd0a4f28419497f9722a3daafe3b4186f6b6457e060405160405180910390a35050565b6114f9806101656000396000f3fe608060405234801561001057600080fd5b50600436106100a95760003560e01c8063715018a611610071578063715018a6146101785780638da5cb5b146101825780639208bfd5146101a05780639fc5b667146101bc578063cb24eae7146101ec578063f2fde38b1461021e576100a9565b806301e88208146100ae5780630bcaee73146100de5780630c1fa09c1461010e5780633507c6be1461013e5780637065cb481461015c575b600080fd5b6100c860048036038101906100c39190610cf2565b61023a565b6040516100d59190610d3a565b60405180910390f35b6100f860048036038101906100f39190610cf2565b61025a565b6040516101059190610d6e565b60405180910390f35b61012860048036038101906101239190610db5565b610272565b6040516101359190610df1565b60405180910390f35b6101466102f7565b6040516101539190610d6e565b60405180910390f35b61017660048036038101906101719190610cf2565b61033e565b005b610180610415565b005b61018a61049d565b6040516101979190610e1b565b60405180910390f35b6101ba60048036038101906101b59190610fa8565b6104c6565b005b6101d660048036038101906101d19190611033565b610872565b6040516101e39190610df1565b60405180910390f35b61020660048036038101906102019190611073565b6108c0565b60405161021593929190611128565b60405180910390f35b61023860048036038101906102339190610cf2565b610a1a565b005b60046020528060005260406000206000915054906101000a900460ff1681565b60036020528060005260406000206000915090505481565b6000600260003373ffffffffffffffffffffffffffffffffffffffff1673ffffffffffffffffffffffffffffffffffffffff16815260200190815260200160002082815481106102c5576102c461116d565b5b9060005260206000200160009054906101000a900473ffffffffffffffffffffffffffffffffffffffff169050919050565b6000600360003373ffffffffffffffffffffffffffffffffffffffff1673ffffffffffffffffffffffffffffffffffffffff16815260200190815260200160002054905090565b610346610b11565b73ffffffffffffffffffffffffffffffffffffffff1661036461049d565b73ffffffffffffffffffffffffffffffffffffffff16146103ba576040517f08c379a00000000000000000000000000000000000000000000000000000000081526004016103b1906111e8565b60405180910390fd5b6001600460008373ffffffffffffffffffffffffffffffffffffffff1673ffffffffffffffffffffffffffffffffffffffff16815260200190815260200160002060006101000a81548160ff02191690831515021790555050565b61041d610b11565b73ffffffffffffffffffffffffffffffffffffffff1661043b61049d565b73ffffffffffffffffffffffffffffffffffffffff1614610491576040517f08c379a0000000000000000000000000000000000000000000000000000000008152600401610488906111e8565b60405180910390fd5b61049b6000610b19565b565b60008060009054906101000a900473ffffffffffffffffffffffffffffffffffffffff16905090565b33600460008273ffffffffffffffffffffffffffffffffffffffff1673ffffffffffffffffffffffffffffffffffffffff16815260200190815260200160002060009054906101000a900460ff16610553576040517f08c379a000000000000000000000000000000000000000000000000000000000815260040161054a90611254565b60405180910390fd5b83600073ffffffffffffffffffffffffffffffffffffffff16600160008373ffffffffffffffffffffffffffffffffffffffff1673ffffffffffffffffffffffffffffffffffffffff16815260200190815260200160002060020160009054906101000a900473ffffffffffffffffffffffffffffffffffffffff1673ffffffffffffffffffffffffffffffffffffffff1614610625576040517f08c379a000000000000000000000000000000000000000000000000000000000815260040161061c906112c0565b60405180910390fd5b8460008173ffffffffffffffffffffffffffffffffffffffff160361067f576040517f08c379a00000000000000000000000000000000000000000000000000000000081526004016106769061132c565b60405180910390fd5b60405180606001604052808681526020018581526020013373ffffffffffffffffffffffffffffffffffffffff16815250600160008873ffffffffffffffffffffffffffffffffffffffff1673ffffffffffffffffffffffffffffffffffffffff168152602001908152602001600020600082015181600001908051906020019061070b929190610bdd565b506020820151816001019080519060200190610728929190610bdd565b5060408201518160020160006101000a81548173ffffffffffffffffffffffffffffffffffffffff021916908373ffffffffffffffffffffffffffffffffffffffff160217905550905050600260003373ffffffffffffffffffffffffffffffffffffffff1673ffffffffffffffffffffffffffffffffffffffff168152602001908152602001600020869080600181540180825580915050600190039060005260206000200160009091909190916101000a81548173ffffffffffffffffffffffffffffffffffffffff021916908373ffffffffffffffffffffffffffffffffffffffff1602179055506001600360003373ffffffffffffffffffffffffffffffffffffffff1673ffffffffffffffffffffffffffffffffffffffff1681526020019081526020016000206000828254610863919061137b565b92505081905550505050505050565b6002602052816000526040600020818154811061088e57600080fd5b906000526020600020016000915091509054906101000a900473ffffffffffffffffffffffffffffffffffffffff1681565b60016020528060005260406000206000915090508060000180546108e390611400565b80601f016020809104026020016040519081016040528092919081815260200182805461090f90611400565b801561095c5780601f106109315761010080835404028352916020019161095c565b820191906000526020600020905b81548152906001019060200180831161093f57829003601f168201915b50505050509080600101805461097190611400565b80601f016020809104026020016040519081016040528092919081815260200182805461099d90611400565b80156109ea5780601f106109bf576101008083540402835291602001916109ea565b820191906000526020600020905b8154815290600101906020018083116109cd57829003601f168201915b5050505050908060020160009054906101000a900473ffffffffffffffffffffffffffffffffffffffff16905083565b610a22610b11565b73ffffffffffffffffffffffffffffffffffffffff16610a4061049d565b73ffffffffffffffffffffffffffffffffffffffff1614610a96576040517f08c379a0000000000000000000000000000000000000000000000000000000008152600401610a8d906111e8565b60405180910390fd5b600073ffffffffffffffffffffffffffffffffffffffff168173ffffffffffffffffffffffffffffffffffffffff1603610b05576040517f08c379a0000000000000000000000000000000000000000000000000000000008152600401610afc906114a3565b60405180910390fd5b610b0e81610b19565b50565b600033905090565b60008060009054906101000a900473ffffffffffffffffffffffffffffffffffffffff169050816000806101000a81548173ffffffffffffffffffffffffffffffffffffffff021916908373ffffffffffffffffffffffffffffffffffffffff1602179055508173ffffffffffffffffffffffffffffffffffffffff168173ffffffffffffffffffffffffffffffffffffffff167f8be0079c531659141344cd1fd0a4f28419497f9722a3daafe3b4186f6b6457e060405160405180910390a35050565b828054610be990611400565b90600052602060002090601f016020900481019282610c0b5760008555610c52565b82601f10610c2457805160ff1916838001178555610c52565b82800160010185558215610c52579182015b82811115610c51578251825591602001919060010190610c36565b5b509050610c5f9190610c63565b5090565b5b80821115610c7c576000816000905550600101610c64565b5090565b6000604051905090565b600080fd5b600080fd5b600073ffffffffffffffffffffffffffffffffffffffff82169050919050565b6000610cbf82610c94565b9050919050565b610ccf81610cb4565b8114610cda57600080fd5b50565b600081359050610cec81610cc6565b92915050565b600060208284031215610d0857610d07610c8a565b5b6000610d1684828501610cdd565b91505092915050565b60008115159050919050565b610d3481610d1f565b82525050565b6000602082019050610d4f6000830184610d2b565b92915050565b6000819050919050565b610d6881610d55565b82525050565b6000602082019050610d836000830184610d5f565b92915050565b610d9281610d55565b8114610d9d57600080fd5b50565b600081359050610daf81610d89565b92915050565b600060208284031215610dcb57610dca610c8a565b5b6000610dd984828501610da0565b91505092915050565b610deb81610c94565b82525050565b6000602082019050610e066000830184610de2565b92915050565b610e1581610cb4565b82525050565b6000602082019050610e306000830184610e0c565b92915050565b610e3f81610c94565b8114610e4a57600080fd5b50565b600081359050610e5c81610e36565b92915050565b600080fd5b600080fd5b6000601f19601f8301169050919050565b7f4e487b7100000000000000000000000000000000000000000000000000000000600052604160045260246000fd5b610eb582610e6c565b810181811067ffffffffffffffff82111715610ed457610ed3610e7d565b5b80604052505050565b6000610ee7610c80565b9050610ef38282610eac565b919050565b600067ffffffffffffffff821115610f1357610f12610e7d565b5b610f1c82610e6c565b9050602081019050919050565b82818337600083830152505050565b6000610f4b610f4684610ef8565b610edd565b905082815260208101848484011115610f6757610f66610e67565b5b610f72848285610f29565b509392505050565b600082601f830112610f8f57610f8e610e62565b5b8135610f9f848260208601610f38565b91505092915050565b600080600060608486031215610fc157610fc0610c8a565b5b6000610fcf86828701610e4d565b935050602084013567ffffffffffffffff811115610ff057610fef610c8f565b5b610ffc86828701610f7a565b925050604084013567ffffffffffffffff81111561101d5761101c610c8f565b5b61102986828701610f7a565b9150509250925092565b6000806040838503121561104a57611049610c8a565b5b600061105885828601610cdd565b925050602061106985828601610da0565b9150509250929050565b60006020828403121561108957611088610c8a565b5b600061109784828501610e4d565b91505092915050565b600081519050919050565b600082825260208201905092915050565b60005b838110156110da5780820151818401526020810190506110bf565b838111156110e9576000848401525b50505050565b60006110fa826110a0565b61110481856110ab565b93506111148185602086016110bc565b61111d81610e6c565b840191505092915050565b6000606082019050818103600083015261114281866110ef565b9050818103602083015261115681856110ef565b90506111656040830184610e0c565b949350505050565b7f4e487b7100000000000000000000000000000000000000000000000000000000600052603260045260246000fd5b7f4f776e61626c653a2063616c6c6572206973206e6f7420746865206f776e6572600082015250565b60006111d26020836110ab565b91506111dd8261119c565b602082019050919050565b60006020820190508181036000830152611201816111c5565b9050919050565b7f646f206e6f742068617665207065726d697373696f6e00000000000000000000600082015250565b600061123e6016836110ab565b915061124982611208565b602082019050919050565b6000602082019050818103600083015261126d81611231565b9050919050565b7f7265636f7264732063616e206e6f74206265206d6f6469666965640000000000600082015250565b60006112aa601b836110ab565b91506112b582611274565b602082019050919050565b600060208201905081810360008301526112d98161129d565b9050919050565b7f757569642063616e206e6f74206265207a65726f000000000000000000000000600082015250565b60006113166014836110ab565b9150611321826112e0565b602082019050919050565b6000602082019050818103600083015261134581611309565b9050919050565b7f4e487b7100000000000000000000000000000000000000000000000000000000600052601160045260246000fd5b600061138682610d55565b915061139183610d55565b9250827fffffffffffffffffffffffffffffffffffffffffffffffffffffffffffffffff038211156113c6576113c561134c565b5b828201905092915050565b7f4e487b7100000000000000000000000000000000000000000000000000000000600052602260045260246000fd5b6000600282049050600182168061141857607f821691505b60208210810361142b5761142a6113d1565b5b50919050565b7f4f776e61626c653a206e6577206f776e657220697320746865207a65726f206160008201527f6464726573730000000000000000000000000000000000000000000000000000602082015250565b600061148d6026836110ab565b915061149882611431565b604082019050919050565b600060208201905081810360008301526114bc81611480565b905091905056fea26469706673582212204d5570f24be975a9c4b7faf5d8ea1e205e866781582d8bc2dc1bb07f4b6219cc64736f6c634300080d0033",
  "immutableReferences": {},
  "source": "// SPDX-License-Identifier: MIT\r\n\r\npragma solidity ^0.8.1;\r\n\r\nimport \"@openzeppelin/contracts/access/Ownable.sol\";\r\n\r\ncontract DocumentsHashStorage is Ownable {\r\n\r\n  constructor() {\r\n    permissions[msg.sender] = true;\r\n  }\r\n\r\n  struct Document {\r\n    string cid;\r\n    string path; // can be optimized https://ethereum.stackexchange.com/questions/61100/how-much-does-it-cost-to-store-each-ipfs-hash-in-ethereum-blockchain\r\n    address owner;\r\n  }\r\n\r\n  mapping(uint160 => Document) public documents;\r\n  mapping(address => uint160[]) public ownerToUuids;\r\n  mapping(address => uint256) public ownerToUuidsSize;\r\n  mapping(address => bool) public permissions;\r\n\r\n  modifier canNotModify(uint160 uuid) {\r\n    require(\r\n      documents[uuid].owner == address(0x0), \"records can not be modified\");\r\n    _;\r\n  }\r\n\r\n  modifier notZero(uint160 uuid) {\r\n    require(uuid != 0, \"uuid can not be zero\");\r\n    _;\r\n  }\r\n\r\n  modifier onlyPermitted(address caller) {\r\n    require(permissions[caller], \"do not have permission\");\r\n    _;\r\n  }\r\n\r\n  function addOwner(address newOwner) public onlyOwner {\r\n    permissions[newOwner] = true;\r\n  }\r\n\r\n  function getOwnerUuidSize() public view returns(uint256) {\r\n    return ownerToUuidsSize[msg.sender];\r\n  }\r\n\r\n  function getOwnerUuid(uint256 i) public view returns(uint160) {\r\n    return ownerToUuids[msg.sender][i];\r\n  }\r\n\r\n  function addDocument(uint160 uuid, string memory cid, string memory path)\r\n  public\r\n  onlyPermitted(msg.sender)\r\n  canNotModify(uuid)\r\n  notZero(uuid) {\r\n    documents[uuid] = Document(cid, path, msg.sender);\r\n    ownerToUuids[msg.sender].push(uuid);\r\n    ownerToUuidsSize[msg.sender] += 1;\r\n  }\r\n}\r\n",
  "sourcePath": "F:\\Projects\\Blockchain and Backend development\\Capstone\\contracts\\DocumentsHashStorage.sol",
  "compiler": {
    "name": "solc",
    "version": "0.8.13+commit.abaa5c0e.Emscripten.clang"
  },
  "schemaVersion": "3.4.6",
  "updatedAt": "2022-06-04T16:46:00.301Z",
  "networkType": "ethereum",
  "devdoc": {
    "kind": "dev",
    "methods": {
      "owner()": {
        "details": "Returns the address of the current owner."
      },
      "renounceOwnership()": {
        "details": "Leaves the contract without owner. It will not be possible to call `onlyOwner` functions anymore. Can only be called by the current owner. NOTE: Renouncing ownership will leave the contract without an owner, thereby removing any functionality that is only available to the owner."
      },
      "transferOwnership(address)": {
        "details": "Transfers ownership of the contract to a new account (`newOwner`). Can only be called by the current owner."
      }
    },
    "version": 1
  },
  "userdoc": {
    "kind": "user",
    "methods": {},
    "version": 1
  }
}